:060000000A128A11142906
:10000800F000030EF1000B181F200B191020710EC1
:100018008300F00E700E090003138312B2308100C2
:100028000B117D21A00A2008323C031D0800860A16
:10003800A10AA001080003138312061F850A861F60
:0600480085030B10080007
:100200008A010A140F3982073F3406345B344F34B5
:1002100066346D347D3407347F34673477347C340E
:1002200039345E34793471344F2148213F213221F1
:1002300066210313831225212C212208A300A30E7B
:100240002108A3076E2176211B2921080A3C031DE2
:100250000800A20AA10108002208063C031D0800AC
:10026000A201080003138316811281110115811464
:10027000011403138312B23081000B110800031321
:100280008316C03096000313831206080B10080073
:10029000031383160F140F178F160F12080003177E
:1002A00083168801890103138316F0308500F0302E
:1002B00086008701FC3088008113C030950003134D
:1002C00083128501860187018801080003138312C8
:1002D0008B178B150B108B160B1108000F30230595
:1002E000A500F0302305A600A60E08002508002171
:1002F000A70026080021A80008000810881024186C
:1003000086292708870088142414080028088700F5
:060310000814241008008F
:04400E00D420FF3F7C
:00000001FF
